{
  "contractName": "C_SP",
  "abi": [
    {
      "inputs": [],
      "payable": false,
      "stateMutability": "nonpayable",
      "type": "constructor"
    },
    {
      "anonymous": false,
      "inputs": [
        {
          "indexed": false,
          "internalType": "address",
          "name": "serviceproviderAdd",
          "type": "address"
        }
      ],
      "name": "ServiceProviderAdded",
      "type": "event"
    },
    {
      "constant": false,
      "inputs": [
        {
          "internalType": "string",
          "name": "_Uhash",
          "type": "string"
        }
      ],
      "name": "addUser_c",
      "outputs": [
        {
          "internalType": "bool",
          "name": "",
          "type": "bool"
        }
      ],
      "payable": false,
      "stateMutability": "nonpayable",
      "type": "function"
    },
    {
      "constant": false,
      "inputs": [
        {
          "internalType": "address",
          "name": "_Uadd",
          "type": "address"
        }
      ],
      "name": "getUser_c",
      "outputs": [
        {
          "internalType": "string",
          "name": "",
          "type": "string"
        },
        {
          "internalType": "uint256[]",
          "name": "",
          "type": "uint256[]"
        },
        {
          "internalType": "string",
          "name": "",
          "type": "string"
        }
      ],
      "payable": false,
      "stateMutability": "nonpayable",
      "type": "function"
    },
    {
      "constant": false,
      "inputs": [
        {
          "internalType": "address",
          "name": "_Spadd",
          "type": "address"
        }
      ],
      "name": "getServiceProvider",
      "outputs": [
        {
          "internalType": "string",
          "name": "",
          "type": "string"
        }
      ],
      "payable": false,
      "stateMutability": "nonpayable",
      "type": "function"
    },
    {
      "constant": false,
      "inputs": [
        {
          "internalType": "address",
          "name": "_Spadd",
          "type": "address"
        }
      ],
      "name": "grantAccess",
      "outputs": [
        {
          "internalType": "bool",
          "name": "",
          "type": "bool"
        }
      ],
      "payable": false,
      "stateMutability": "nonpayable",
      "type": "function"
    },
    {
      "constant": false,
      "inputs": [
        {
          "internalType": "address",
          "name": "_Uaddress",
          "type": "address"
        }
      ],
      "name": "getUser",
      "outputs": [
        {
          "internalType": "string",
          "name": "",
          "type": "string"
        }
      ],
      "payable": false,
      "stateMutability": "nonpayable",
      "type": "function"
    },
    {
      "constant": false,
      "inputs": [
        {
          "internalType": "string",
          "name": "_Sphash",
          "type": "string"
        }
      ],
      "name": "addSer_Pro",
      "outputs": [
        {
          "internalType": "bool",
          "name": "",
          "type": "bool"
        }
      ],
      "payable": false,
      "stateMutability": "nonpayable",
      "type": "function"
    }
  ],
  "bytecode": "0x608060405234801561001057600080fd5b5060016000803373ffffffffffffffffffffffffffffffffffffffff1673ffffffffffffffffffffffffffffffffffffffff16815260200190815260200160002081905550611250806100646000396000f3fe608060405234801561001057600080fd5b50600436106100625760003560e01c80630ae5e7391461006757806336078245146100975780636f77926b146100c95780638cc01c86146100f9578063bcd3e92914610129578063e057f89514610159575b600080fd5b610081600480360361007c9190810190610d44565b610189565b60405161008e9190610fce565b60405180910390f35b6100b160048036036100ac9190810190610d44565b6102cb565b6040516100c09392919061100b565b60405180910390f35b6100e360048036036100de9190810190610d44565b6105f9565b6040516100f09190610fe9565b60405180910390f35b610113600480360361010e9190810190610d44565b6106da565b6040516101209190610fe9565b60405180910390f35b610143600480360361013e9190810190610d6d565b6107be565b6040516101509190610fce565b60405180910390f35b610173600480360361016e9190810190610d6d565b610974565b6040516101809190610fce565b60405180910390f35b600060405160200161019a90610f9e565b60405160208183030381529060405280519060200120600160003373ffffffffffffffffffffffffffffffffffffffff1673ffffffffffffffffffffffffffffffffffffffff1681526020019081526020016000206040516020016101ff9190610f72565b604051602081830303815290604052805190602001201461021f57600080fd5b600360003373ffffffffffffffffffffffffffffffffffffffff1673ffffffffffffffffffffffffffffffffffffffff1681526020019081526020016000208290806001815401808255809150509060018203906000526020600020016000909192909190916101000a81548173ffffffffffffffffffffffffffffffffffffffff021916908373ffffffffffffffffffffffffffffffffffffffff1602179055505060019050919050565b60608060608373ffffffffffffffffffffffffffffffffffffffff163373ffffffffffffffffffffffffffffffffffffffff161461030857600080fd5b60405160200161031790610f9e565b60405160208183030381529060405280519060200120600160003373ffffffffffffffffffffffffffffffffffffffff1673ffffffffffffffffffffffffffffffffffffffff16815260200190815260200160002060405160200161037c9190610f72565b604051602081830303815290604052805190602001201461039c57600080fd5b600260003373ffffffffffffffffffffffffffffffffffffffff1673ffffffffffffffffffffffffffffffffffffffff168152602001908152602001600020600001600260003373ffffffffffffffffffffffffffffffffffffffff1673ffffffffffffffffffffffffffffffffffffffff168152602001908152602001600020600101600260003373ffffffffffffffffffffffffffffffffffffffff1673ffffffffffffffffffffffffffffffffffffffff168152602001908152602001600020600201828054600181600116156101000203166002900480601f0160208091040260200160405190810160405280929190818152602001828054600181600116156101000203166002900480156104f75780601f106104cc576101008083540402835291602001916104f7565b820191906000526020600020905b8154815290600101906020018083116104da57829003601f168201915b505050505092508180548060200260200160405190810160405280929190818152602001828054801561054957602002820191906000526020600020905b815481526020019060010190808311610535575b50505050509150808054600181600116156101000203166002900480601f0160208091040260200160405190810160405280929190818152602001828054600181600116156101000203166002900480156105e55780601f106105ba576101008083540402835291602001916105e5565b820191906000526020600020905b8154815290600101906020018083116105c857829003601f168201915b505050505090509250925092509193909250565b6060600160008373ffffffffffffffffffffffffffffffffffffffff1673ffffffffffffffffffffffffffffffffffffffff1681526020019081526020016000208054600181600116156101000203166002900480601f0160208091040260200160405190810160405280929190818152602001828054600181600116156101000203166002900480156106ce5780601f106106a3576101008083540402835291602001916106ce565b820191906000526020600020905b8154815290600101906020018083116106b157829003601f168201915b50505050509050919050565b6060600460008373ffffffffffffffffffffffffffffffffffffffff1673ffffffffffffffffffffffffffffffffffffffff1681526020019081526020016000206000018054600181600116156101000203166002900480601f0160208091040260200160405190810160405280929190818152602001828054600181600116156101000203166002900480156107b25780601f10610787576101008083540402835291602001916107b2565b820191906000526020600020905b81548152906001019060200180831161079557829003601f168201915b50505050509050919050565b60006040516020016107cf90610f89565b60405160208183030381529060405280519060200120600160003373ffffffffffffffffffffffffffffffffffffffff1673ffffffffffffffffffffffffffffffffffffffff1681526020019081526020016000206040516020016108349190610f72565b604051602081830303815290604052805190602001201461085457600080fd5b6040518060400160405280600f81526020017f7365727669636570726f76696465720000000000000000000000000000000000815250600160003373ffffffffffffffffffffffffffffffffffffffff1673ffffffffffffffffffffffffffffffffffffffff16815260200190815260200160002090805190602001906108dc929190610b48565b5081600460003373ffffffffffffffffffffffffffffffffffffffff1673ffffffffffffffffffffffffffffffffffffffff1681526020019081526020016000206000019080519060200190610933929190610b48565b507fcd01559a6bb952358fd75732d1b0722f0b5a507abe65c390bc972be0150211c8336040516109639190610fb3565b60405180910390a160019050919050565b600060405160200161098590610f89565b60405160208183030381529060405280519060200120600160003373ffffffffffffffffffffffffffffffffffffffff1673ffffffffffffffffffffffffffffffffffffffff1681526020019081526020016000206040516020016109ea9190610f72565b6040516020818303038152906040528051906020012014610a0a57600080fd5b610a12610bc8565b8281600001819052506040518060400160405280600481526020017f7573657200000000000000000000000000000000000000000000000000000000815250600160003373ffffffffffffffffffffffffffffffffffffffff1673ffffffffffffffffffffffffffffffffffffffff1681526020019081526020016000209080519060200190610aa3929190610b48565b5080600260003373ffffffffffffffffffffffffffffffffffffffff1673ffffffffffffffffffffffffffffffffffffffff1681526020019081526020016000206000820151816000019080519060200190610b00929190610be9565b506020820151816001019080519060200190610b1d929190610c69565b506040820151816002019080519060200190610b3a929190610be9565b509050506001915050919050565b828054600181600116156101000203166002900490600052602060002090601f016020900481019282601f10610b8957805160ff1916838001178555610bb7565b82800160010185558215610bb7579182015b82811115610bb6578251825591602001919060010190610b9b565b5b509050610bc49190610cb6565b5090565b60405180606001604052806060815260200160608152602001606081525090565b828054600181600116156101000203166002900490600052602060002090601f016020900481019282601f10610c2a57805160ff1916838001178555610c58565b82800160010185558215610c58579182015b82811115610c57578251825591602001919060010190610c3c565b5b509050610c659190610cb6565b5090565b828054828255906000526020600020908101928215610ca5579160200282015b82811115610ca4578251825591602001919060010190610c89565b5b509050610cb29190610cb6565b5090565b610cd891905b80821115610cd4576000816000905550600101610cbc565b5090565b90565b600081359050610cea816111f6565b92915050565b600082601f830112610d0157600080fd5b8135610d14610d0f82611084565b611057565b91508082526020830160208301858383011115610d3057600080fd5b610d3b8382846111a3565b50505092915050565b600060208284031215610d5657600080fd5b6000610d6484828501610cdb565b91505092915050565b600060208284031215610d7f57600080fd5b600082013567ffffffffffffffff811115610d9957600080fd5b610da584828501610cf0565b91505092915050565b6000610dba8383610f63565b60208301905092915050565b610dcf8161116d565b82525050565b6000610de0826110d5565b610dea81856110f8565b9350610df5836110b0565b8060005b83811015610e26578151610e0d8882610dae565b9750610e18836110eb565b925050600181019050610df9565b5085935050505092915050565b610e3c81611137565b82525050565b6000610e4d826110e0565b610e578185611109565b9350610e678185602086016111b2565b610e70816111e5565b840191505092915050565b600081546001811660008114610e985760018114610ebd57610f01565b607f6002830416610ea9818761111a565b955060ff1983168652808601935050610f01565b60028204610ecb818761111a565b9550610ed6856110c0565b60005b82811015610ef857815481890152600182019150602081019050610ed9565b82880195505050505b505092915050565b6000610f1660008361111a565b9150600082019050919050565b6000610f3060048361111a565b91507f75736572000000000000000000000000000000000000000000000000000000006000830152600482019050919050565b610f6c81611163565b82525050565b6000610f7e8284610e7b565b915081905092915050565b6000610f9482610f09565b9150819050919050565b6000610fa982610f23565b9150819050919050565b6000602082019050610fc86000830184610dc6565b92915050565b6000602082019050610fe36000830184610e33565b92915050565b600060208201905081810360008301526110038184610e42565b905092915050565b600060608201905081810360008301526110258186610e42565b905081810360208301526110398185610dd5565b9050818103604083015261104d8184610e42565b9050949350505050565b6000604051905081810181811067ffffffffffffffff8211171561107a57600080fd5b8060405250919050565b600067ffffffffffffffff82111561109b57600080fd5b601f19601f8301169050602081019050919050565b6000819050602082019050919050565b60008190508160005260206000209050919050565b600081519050919050565b600081519050919050565b6000602082019050919050565b600082825260208201905092915050565b600082825260208201905092915050565b600081905092915050565b600061113082611143565b9050919050565b60008115159050919050565b600073ffffffffffffffffffffffffffffffffffffffff82169050919050565b6000819050919050565b60006111788261117f565b9050919050565b600061118a82611191565b9050919050565b600061119c82611143565b9050919050565b82818337600083830152505050565b60005b838110156111d05780820151818401526020810190506111b5565b838111156111df576000848401525b50505050565b6000601f19601f8301169050919050565b6111ff81611125565b811461120a57600080fd5b5056fea365627a7a72315820331f62fe71ff0875b4be3fe727f56320c3931a49dd3403cee669a344825f55c16c6578706572696d656e74616cf564736f6c63430005100040",
  "source": "// SPDX-License-Identifier: GPL-3.0\n\npragma solidity >=0.5.16;\npragma experimental ABIEncoderV2;\ncontract C_SP {\n    //mappings\n    mapping(address => uint) authCaller;\n    mapping(address => string) userType;\n    mapping(address => user) UData;\n    mapping(address=> address[]) userToServicepro;\n    mapping(address => serviceprovider) SpData;\n \n    //constructor\n    constructor() public{\n        authCaller[msg.sender] = 1;\n    }\n    \n    \n    //events\n     event ServiceProviderAdded(address serviceproviderAdd);\n\n    //structs\n     struct user{\n        string Uhash; \n        uint [] treatmentId;\n        string precautions;\n\n    }\n    struct serviceprovider{\n        string Sphash;\n    }\n   \n    //struct variable\n    \n    function addUser_c(string memory _Uhash) public returns(bool){\n        require(keccak256(abi.encodePacked(userType[msg.sender])) == keccak256(abi.encodePacked(\"\")));\n        user memory usr;\n        usr.Uhash = _Uhash;\n        userType[msg.sender] = 'user';\n        UData[msg.sender] = usr;\n        return true;\n    }\n    \n\n\n    function getUser_c(address _Uadd) public returns(string memory,uint[] memory,string memory){\n        require(msg.sender == _Uadd);\n        require(keccak256(abi.encodePacked(userType[msg.sender])) == keccak256(abi.encodePacked(\"user\")));\n        \n        return (UData[msg.sender].Uhash,UData[msg.sender].treatmentId,UData[msg.sender].precautions);\n    }\n    \n    function getServiceProvider(address _Spadd) public returns(string memory){\n        //need to complete\n         return SpData[_Spadd].Sphash; \n    }\n    \n    \n    function grantAccess(address _Spadd) public returns(bool){\n        require(keccak256(abi.encodePacked(userType[msg.sender])) == keccak256(abi.encodePacked(\"user\")));\n        userToServicepro[msg.sender].push(_Spadd);\n        return true;\n    }\n    \n    //getUser\n    function getUser(address _Uaddress) public returns(string memory){\n        return userType[_Uaddress];\n    }\n    \n    //Service Provider\n    \n     function addSer_Pro(string memory _Sphash) public returns(bool){\n        require(keccak256(abi.encodePacked(userType[msg.sender])) == keccak256(abi.encodePacked(\"\")));\n        userType[msg.sender] = 'serviceprovider';\n        SpData[msg.sender].Sphash = _Sphash;\n        emit ServiceProviderAdded(msg.sender);\n        return true;\n    }\n    \n    \n}",
  "sourcePath": "D:/C-SP-2/BackEnd/contracts/C_SP.sol",
  "compiler": {
    "name": "solc",
    "version": "0.5.16+commit.9c3226ce.Emscripten.clang"
  },
  "schemaVersion": "3.4.1",
  "updatedAt": "2021-05-31T10:53:42.704Z",
  "networkType": "ethereum",
  "devdoc": {
    "methods": {}
  },
  "userdoc": {
    "methods": {}
  }
}